:100000000C9465000C94ED1B0C941A1C0C948D0040
:100010000C948D000C948D000C948D000C9405179D
:100020000C94BD180C948D000C948D000C94D7107A
:100030000C948D000C948D000C948D000C948D000C
:100040000C94471C0C948D000C9481190C94CF19BE
:100050000C948D000C948D000C948D000C948D00EC
:100060000C94020E0C948D00000000002400270068
:100070002A0000000000250028002B0000000000DE
:1000800023002600290004040404040404040202DA
:100090000202020203030303030301020408102007
:1000A0004080010204081020010204081020000012
:1000B0000007000201000003040600000000000029
:1000C00000006C076F0D3B1B650711241FBECFEFAF
:1000D000D8E0DEBFCDBF12E0A0E0B1E0ECE8F6E48E
:1000E00002C005900D92A83AB107D9F715E0A8EA29
:1000F000B2E001C01D92A33CB107E1F710E0C8ECEB
:10010000D0E004C02297FE010E94B722C23CD10772
:10011000C9F70E94911B0C9439230C940000A0E0B5
:10012000B0E0E5E9F0E00C947E22DC012B01FA015D
:100130009C91923008F439C1EB018881823008F437
:1001400033C1943069F4843009F02FC111969C9129
:1001500011978981981709F428C1A1E0B1E025C160
:10016000843009F421C18230A9F4923009F01DC114
:100170009A01AD0188E0EA010990AE01E901099216
:100180009E018150C1F7E201898111969C918923DA
:10019000818308C1923009F407C112962D903C90DA
:1001A0001397EB018A819B811496AD90BD90CD9001
:1001B000DC901797EC80FD800E811F819101281B38
:1001C000390BB90137FF04C066277727621B730B11
:1001D000603271050CF061C0121613066CF5370120
:1001E0004801062E04C096948794779467940A94E5
:1001F000D2F721E030E040E050E004C0220F331F8E
:10020000441F551F6A95D2F721503040404050405E
:100210002E213F2140235123211531054105510550
:1002200021F021E030E040E050E079018A01E62849
:10023000F728082919293CC0232BD1F1260E371E97
:1002400035014601062E04C09694879477946794EE
:100250000A94D2F721E030E040E050E004C0220FE1
:10026000331F441F551F6A95D2F72150304040403C
:1002700050402A213B214C215D21211531054105AA
:10028000510521F021E030E040E050E059016A01E1
:10029000A628B728C828D9280BC0821593052CF0AA
:1002A0001C01AA24BB24650103C0EE24FF2487019E
:1002B00011969C91D20111968C91981709F445C022
:1002C000992339F0A80197012A193B094C095D09C6
:1002D00006C0A60195012E193F09400B510B57FD91
:1002E00008C0118233822282248335834683578358
:1002F0001DC081E081833382228288279927DC0117
:10030000821B930BA40BB50B84839583A683B783C1
:100310000DC0220F331F441F551F2483358346838E
:1003200057838281938101979383828324813581CE
:1003300046815781DA01C9010197A109B1098F5F8F
:100340009F4FAF4FBF4328F30BC09183338222826C
:10035000EA0CFB1C0C1D1D1DE482F582068317832D
:1003600083E08083248135814681578157FF1AC0FD
:10037000C901AA2797FDA095BA2F81709070A0702F
:10038000B0705695479537952795822B932BA42BC4
:10039000B52B84839583A683B7838281938101964D
:1003A00093838283DF0101C0D201CD01CDB7DEB7D7
:1003B000E2E10C949A22A0E2B0E0E1EEF1E00C94CC
:1003C0008A2269837A838B839C832D833E834F8328
:1003D0005887E9E0EE2EF12CEC0EFD1ECE010196C1
:1003E000B7010E9415068E010F5E1F4FCE010596C4
:1003F000B8010E9415068A8991E089278A8BC70176
:10040000B801AE01475E5F4F0E948F000E94400519
:10041000A096E6E00C94A622A0E2B0E0E2E1F2E0D1
:100420000C948A2269837A838B839C832D833E83F9
:100430004F835887F9E0EF2EF12CEC0EFD1ECE0114
:100440000196B7010E9415068E010F5E1F4FCE0167
:100450000596B8010E941506C701B801AE01475EB6
:100460005F4F0E948F000E944005A096E6E00C942A
:10047000A622A0E2B0E0EFE3F2E00C947E226983D2
:100480007A838B839C832D833E834F835887CE0151
:100490000196BE01675F7F4F0E941506CE0105964B
:1004A000BE016F5E7F4F0E9415069985923088F0DD
:1004B00089898230C8F0943019F4823051F404C034
:1004C000843029F4923081F481E091E0C6C092300A
:1004D00049F420E09A858A89981321E02A87CE0181
:1004E0000996BBC0823049F420E09A858A89981326
:1004F00021E02A8BCE014196B0C02D843E844F84EA
:1005000058886D887E888F88988CEE24FF24870118
:10051000AA24BB24650140E050E060E070E0E0E028
:10052000F0E0C10181709070892BE9F0E60CF71CB6
:10053000081D191D9A01AB012A0D3B1D4C1D5D1DA7
:1005400080E090E0A0E0B0E0E614F70408051905AB
:1005500020F481E090E0A0E0B0E0BA01A901480FEA
:10056000591F6A1F7B1FAA0CBB1CCC1CDD1C97FEED
:1005700008C081E090E0A0E0B0E0A82AB92ACA2A29
:10058000DB2A3196E032F10549F0660C771C881CB5
:10059000991C5694479437942794C3CFFA85EA89D7
:1005A0002B893C898B859C85280F391F2E5F3F4FF7
:1005B00017C0CA0181709070892B61F0169507955C
:1005C000F794E79480E090E0A0E0B0E8E82AF92A08
:1005D0000A2B1B2B76956795579547952F5F3F4FB5
:1005E00077FDE7CF0CC0440F551F661F771F17FD1F
:1005F0004160EE0CFF1C001F111F215030404030A5
:1006000090E0590790E0690790E4790760F32B8F39
:100610003C8FDB01CA018F779070A070B07080347E
:100620009105A105B10561F447FD0AC0E114F1048B
:100630000105110529F0405C5F4F6F4F7F4F4078F7
:100640001A8EFE1711F081E08A8F4D8F5E8F6F8FAB
:1006500078A383E0898FCE0149960E944005A09639
:10066000E2E10C949A22A8E1B0E0E9E3F3E00C9413
:10067000862269837A838B839C832D833E834F8379
:100680005887B9E0EB2EF12CEC0EFD1ECE01019641
:10069000B7010E9415068E010F5E1F4FCE01059611
:1006A000B8010E9415062985223008F47EC03989D8
:1006B000323010F4B8017CC08A859A8989278A87EC
:1006C000243011F0223031F4231709F06EC061E0BC
:1006D00071E06EC0343039F41D861E861F86188A7C
:1006E0001C861B8604C0323021F484E08987B70160
:1006F0005FC02B853C858B899C89281B390B3C87E7
:100700002B87ED84FE840F851889AD88BE88CF883D
:10071000D88CEA14FB040C051D0540F4EE0CFF1CFC
:10072000001F111F215030403C872B8720E030E014
:1007300040E050E080E090E0A0E0B0E460E070E0F5
:10074000EA14FB040C051D0540F0282B392B4A2B1D
:100750005B2BEA18FB080C091D09B695A795979520
:100760008795EE0CFF1C001F111F6F5F7F4F6F31CD
:10077000710531F7DA01C9018F779070A070B07000
:1007800080349105A105B10561F427FD0AC0E1148B
:10079000F1040105110529F0205C3F4F4F4F5F4FD9
:1007A00020782D873E874F87588BBE01675F7F4F2C
:1007B000CB010E9440056896EAE00C94A222A8E1D1
:1007C000B0E0E5EEF3E00C948A2269837A838B83B0
:1007D0009C832D833E834F83588789E0E82EF12C3C
:1007E000EC0EFD1ECE010196B7010E9415068E018A
:1007F0000F5E1F4FCE010596B8010E941506898530
:10080000823040F08989823028F0C701B8010E9407
:100810008D0601C081E06896E6E00C94A622A8E16E
:10082000B0E0E5E1F4E00C948A2269837A838B835B
:100830009C832D833E834F83588789E0E82EF12CDB
:10084000EC0EFD1ECE010196B7010E9415068E0129
:100850000F5E1F4FCE010596B8010E9415068985CF
:10086000823040F08989823028F0C701B8010E94A7
:100870008D0601C081E06896E6E00C94A622A8E00F
:10088000B0E0E5E4F4E00C9487229B01AC0183E046
:100890008983DA01C9018827B7FD83959927AA279B
:1008A000BB27B82E211531054105510519F482E009
:1008B00089833AC08823A9F0203080E0380780E09F
:1008C000480780E8580729F460E070E080E09FEC7A
:1008D00030C0EE24FF248701E21AF30A040B150B43
:1008E00002C079018A018EE1C82ED12CDC82CB8234
:1008F000ED82FE820F831887C801B7010E94F104C0
:1009000001971816190684F4082E04C0EE0CFF1C7B
:10091000001F111F0A94D2F7ED82FE820F83188701
:10092000C81AD90ADC82CB82BA82CE0101960E9413
:1009300040052896E9E00C94A322ACE0B0E0E3EA9D
:10094000F4E00C948E2269837A838B839C83CE019E
:100950000196BE016B5F7F4F0E9415068D8182302C
:1009600061F1823050F1843021F48E81882351F17D
:100970002EC02F81388537FD20C06E812F31310583
:100980001CF06623F9F023C08EE190E0821B930BEC
:1009900029853A854B855C8504C0569547953795E2
:1009A00027958A95D2F76623B1F0509540953095FA
:1009B00021953F4F4F4F5F4F0EC020E030E040E0A9
:1009C00050E009C02FEF3FEF4FEF5FE704C020E09A
:1009D00030E040E050E8B901CA012C96E2E00C9406
:1009E000AA22EF92FF920F931F937B018C0180E06C
:1009F000E81680E0F80681E0080780E0180788F430
:100A00008FEFE816F1040105110531F028F088E0B8
:100A100090E0A0E0B0E017C080E090E0A0E0B0E09F
:100A200012C080E0E81680E0F80680E0080781E068
:100A3000180728F088E190E0A0E0B0E004C080E171
:100A400090E0A0E0B0E020E230E040E050E0281B81
:100A5000390B4A0B5B0B04C016950795F794E79486
:100A60008A95D2F7F701E75FFE4F8081281B310995
:100A700041095109C9011F910F91FF90EF9008950D
:100A8000DF92EF92FF920F931F93FC01E480F580B9
:100A900006811781D1808081823048F480E090E027
:100AA000A0E1B0E0E82AF92A0A2B1B2BA5C084306C
:100AB00009F49FC0823021F4EE24FF24870105C091
:100AC000E114F1040105110519F4E0E0F0E096C02D
:100AD000628173819FEF623879070CF05BC022E876
:100AE0003FEF261B370B2A3131052CF020E030E098
:100AF00040E050E02AC0B801A701022E04C076955C
:100B00006795579547950A94D2F781E090E0A0E069
:100B1000B0E004C0880F991FAA1FBB1F2A95D2F707
:100B20000197A109B1098E219F21A023B12300972C
:100B3000A105B10521F081E090E0A0E0B0E09A01CC
:100B4000AB01282B392B4A2B5B2BDA01C9018F779C
:100B50009070A070B07080349105A105B10539F492
:100B600027FF09C0205C3F4F4F4F5F4F04C0215CFF
:100B70003F4F4F4F5F4FE0E0F0E02030A0E03A07FA
:100B8000A0E04A07A0E45A0710F0E1E0F0E07901A4
:100B90008A0127C06038710564F5FB01E158FF4FF9
:100BA000D801C7018F779070A070B0708034910524
:100BB000A105B10539F4E7FE0DC080E490E0A0E0A6
:100BC000B0E004C08FE390E0A0E0B0E0E80EF91ED2
:100BD0000A1F1B1F17FF05C016950795F794E7948A
:100BE000319687E016950795F794E7948A95D1F7A3
:100BF00005C0EE24FF248701EFEFF0E06E2F67952C
:100C000066276795902F9F77D794DD24D7948E2FF2
:100C10008695492F462B582F5D29B701CA011F9190
:100C20000F91FF90EF90DF900895FC01DB01408170
:100C300051812281622F6F7770E0221F2227221FAD
:100C40009381892F880F822B282F30E0991F9927B5
:100C5000991F11969C93119721153105A9F54115FE
:100C600051056105710511F482E037C082E89FEFFC
:100C700013969C938E9312979A01AB0167E0220F13
:100C8000331F441F551F6A95D1F783E08C930DC025
:100C9000220F331F441F551F12968D919C9113975D
:100CA000019713969C938E931297203080E038071B
:100CB00080E0480780E4580758F314962D933D933D
:100CC0004D935C93179708952F3F310579F44115A3
:100CD00051056105710519F484E08C93089564FF52
:100CE00003C081E08C9312C01C9210C02F5730407B
:100CF00013963C932E93129783E08C9387E0440FD6
:100D0000551F661F771F8A95D1F7706414964D930F
:100D10005D936D937C93179708951F93DC01FB01FE
:100D20009C91923008F447C08081823008F443C01F
:100D3000943051F411961C91843099F58181682F7B
:100D400070E0611B71093FC0843021F0923031F4B2
:100D50008230B9F18181882389F12DC011961C91CF
:100D600011978230F1F081811817D9F412962D91E4
:100D70003C911397828193818217930794F02817EF
:100D80003907BCF014968D919D910D90BC91A02DCA
:100D90002481358146815781281739074A075B0727
:100DA00018F4112341F00AC082179307A407B5076E
:100DB00040F4112319F061E070E005C06FEF7FEFA0
:100DC00002C060E070E0CB011F910895FB01DC01DF
:100DD00002C001900D9241505040D8F70895FB0198
:100DE000DC0101900D920020E1F70895813091051A
:100DF00009F061C06F5F7F4F09F066C088EA92E03A
:100E00000E94930F8BEA92E00E94930F8EEA92E089
:100E10000E94930F81EB92E00E94930F84EB92E08B
:100E20000E94930F87EB92E00E94930F8AEB92E06F
:100E30000E94930F8DEB92E00E94930F80EC92E062
:100E40000E94930F83EC92E00E94930F86EC92E055
:100E50000E94930F89EC92E00E94930F8CEC92E039
:100E60000E94A11180ED92E00E94C91284ED92E0EF
:100E70000E94F11288ED92E00E9421138EED92E023
:100E80000E94E81583EE92E00E9400168AEE92E03E
:100E90000E94B0138DEE92E00E94B61584EF92E0AE
:100EA0000E94A11188EF92E00E94FF168BE193E06F
:100EB0000E94BC180895892B39F46F5F7F4F21F48D
:100EC00089E093E00E94F01F089580E090E06FEFCA
:100ED0007FEF0E94F606089581E090E06FEF7FEFCC
:100EE0000E94F60608950E949D1C20919403309163
:100EF00095034091960350919703621B730B840BEB
:100F0000950B609398037093990380939A03909341
:100F10009B03F89408951092200382E995E00E94C3
:100F2000911A181619065CF481E080932003109240
:100F3000210382E995E00E94C21A809392030895EA
:100F4000682F82E995E00E94FB1A0895CF92DF9204
:100F5000EF92FF920F931F9305E213E01092250387
:100F6000F80112927F012EEFC22E2FEFD22EC00E6B
:100F7000D11EF601908303501040F801808380E079
:100F80000E94A007F70180810E94A007F6018081DE
:100F90000E94A007F80180810E94A0071F910F9175
:100FA000FF90EF90DF90CF90089560931C037093B3
:100FB0001D0380931E0390931F0380911F030E94C3
:100FC000A00780911E030E94A00780911D030E942C
:100FD000A00780911C030E94A0070895EF92FF9242
:100FE0000F931F931092900390912103992319F06E
:100FF00080915C0302C080912803843509F471C19B
:10100000853558F5863009F4EAC0873098F4833086
:1010100009F48CC0843038F4813009F44CC082303B
:1010200009F0B7C46CC0843009F49DC0853009F064
:10103000B0C4B0C0803509F417C1813538F48730A9
:1010400009F4DEC0883009F0A4C4EBC0823509F48D
:1010500025C1833509F09DC436C1863809F44BC4D7
:10106000873898F4833809F4CFC2843838F481384B
:1010700009F456C2823809F08CC48DC2843809F450
:10108000A3C3853809F085C4F7C3813A09F487C141
:10109000823A38F4873809F469C4803A09F079C48F
:1010A0004FC1833A09F4D9C1833A08F4A7C1853AFC
:1010B00009F06FC401C2992319F010915D0302C0B9
:1010C000109129038EEE0E94A00786E60E94A007D9
:1010D00081E00E94A007812F0E94A007812F60E07D
:1010E0000E94E31D80E00E94A00780E00E94A0070C
:1010F00080E00E94A007812F0E94761EB2C0992333
:1011000019F000915D0302C0009129038EEE0E9448
:10111000A00786E60E94A00782E00E94A007802F19
:101120000E94A007112707FD109549C0992319F0C7
:1011300010915D0302C0109129038EEE0E94A0075A
:1011400086E60E94A00783E00E94A007812F0E94EC
:10115000A0078EED92E0612F0E94D2158EED92E0F5
:101160000E94B91514C08AEE92E00E949F137B0181
:101170008C018EEE0E94A00786E60E94A00784E004
:101180000E94A00780E00E94A007C801B7010E944A
:10119000D507FFC3992319F0E0905D0302C0E090EA
:1011A00029030E2D10E08EEE0E94A00786E60E9415
:1011B000A00785E00E94A0078E2D0E94A007000FC7
:1011C000111F075F1D4FF801808160E00E94E31D41
:1011D000F80180810E94611D0E94A607DAC399234D
:1011E00019F0E0905D0302C0E09029030E2D10E09D
:1011F0008EEE0E94A00786E60E94A00786E0DACF66
:10120000992319F0E0905D0302C0E09029030E2DB0
:1012100010E08EEE0E94A00786E60E94A00787E0FD
:10122000C9CF992319F010915D0302C010912903D1
:101230008EEE0E94A00786E60E94A00788E00E942A
:10124000A007812F0E94A00780E00E94A00780E0F5
:101250000E94A00780E00E94A007812F90E00E94DA
:101260008F170E94A00795C38EEE0E94A00786E606
:101270000E94A00780E50E94A00780E00E94A007CE
:1012800080E00E94A00780E00E94A00780E00E940A
:10129000A00784ED92E00E94CD12E3CF8EEE0E9473
:1012A000A00786E60E94A00782E50E94A00780E0D2
:1012B0000E94A0076091190270911A0288ED92E0D5
:1012C0000E94F51289CF8CEC92E00E94E7117B011D
:1012D0008C018EEE0E94A00786E60E94A00783E59F
:1012E0004FCF992319F010915D0302C0109129038B
:1012F00080911B02882339F088EF92E0612F0E94D1
:101300007A1610921B0281E0809391038EEE0E9468
:10131000A00786E60E94A00784E50E94A007812F0F
:101320000E94A00780E00E94A00780E00E94A00722
:1013300080E00E94A00788EF92E00E94D61691CF2D
:10134000992319F080915E0302C080912A03809353
:101350001F0380912103882319F080915F0302C04D
:1013600080912B0380931E0380912103882319F021
:101370008091600302C080912C0380931D038091B3
:101380002103882319F06091610302C060912D034D
:1013900060931C0380ED92E00E948912FAC29923A7
:1013A00019F080915E0302C080912A0380931F038D
:1013B00080912103882319F080915F0302C08091FE
:1013C0002B0380931E0380912103882319F08091C1
:1013D000600302C080912C0380931D038091210340
:1013E000882319F06091610302C060912D0360931E
:1013F0001C0380ED92E00E946312CBC2992319F086
:1014000080915E0302C080912A0380931F03809124
:101410002103882319F080915F0302C080912B0380
:1014200080931E0380912103882319F0809160032B
:1014300002C080912C0380931D0380912103882397
:1014400019F06091610302C060912D0360931C0349
:1014500080ED92E00E943D129CC2992319F0809188
:101460005E0302C080912A0380931F0380912103B1
:10147000882319F080915F0302C080912B03809331
:101480001E0380912103882319F08091600302C01C
:1014900080912C0380931D0380912103882319F0F0
:1014A0006091610302C060912D0360931C0380ED85
:1014B00092E00E9417126DC2992319F080915E0389
:1014C00002C080912A0380931F0380912103882307
:1014D00019F080915F0302C080912B0380931E035B
:1014E00080912103882319F08091600302C08091CC
:1014F0002C0380931D0380912103882319F02091F0
:10150000610302C020912D0320931C0390911D03C1
:1015100080E0820F911D90931A028093190239C2C4
:10152000992329F010915D0380915E0304C010910E
:10153000290380912A0380931F038091210388232C
:1015400019F080915F0302C080912B0380931E03EA
:1015500080912103882319F08091600302C080915B
:101560002C0380931D0380912103882319F080911F
:10157000610302C080912D0380931C03812F61E0E1
:101580000E94E31D60E080911C03811161E0812FC6
:101590000E94221EFEC1992329F010915D038091C3
:1015A0005E0304C01091290380912A0380931F03D6
:1015B00080912103882319F080915F0302C08091FC
:1015C0002B0380931E0380912103882319F08091BF
:1015D000600302C080912C0380931D03809121033E
:1015E000882319F08091610302C080912D038093BC
:1015F0001C03812F61E00E94E31D60911C03812F79
:1016000070E00E94831DC5C1992329F090915D036C
:1016100080915E0304C09091290380912A038093F6
:101620001F0380912103882319F080915F0302C07A
:1016300080912B0380931E0380912103882319F04E
:101640008091600302C080912C0380931D038091E0
:101650002103882319F08091610302C080912D033A
:1016600080931C03973009F45FC0983080F4943065
:10167000D1F1953030F4923001F1933009F089C105
:1016800027C09530D9F1963009F083C142C09A3015
:1016900009F46BC09B3038F4983009F450C099308D
:1016A00009F077C157C09C3009F475C09C3008F42C
:1016B00067C09D3009F06DC179C088EA92E062E0B0
:1016C00070E00E94D01060911C0388EA92E078C01C
:1016D0008BEA92E063E070E00E94D01060911C03FE
:1016E0008BEA92E06DC08EEA92E064E070E00E94C6
:1016F000D01060911C038EEA92E062C081EB92E010
:1017000065E070E00E94D01060911C0381EB92E0D4
:1017100057C084EB92E066E070E00E94D0106091C8
:101720001C0384EB92E04CC087EB92E067E070E032
:101730000E94D01060911C0387EB92E041C08AEBBD
:1017400092E068E070E00E94D01060911C038AEB88
:1017500092E036C08DEB92E069E070E00E94D0101C
:1017600060911C038DEB92E02BC080EC92E06AE06C
:1017700070E00E94D01060911C0380EC92E020C0C9
:1017800083EC92E06BE070E00E94D01060911C034B
:1017900083EC92E015C086EC92E06CE070E00E9471
:1017A000D01060911C0386EC92E00AC089EC92E0B4
:1017B0006DE070E00E94D01060911C0389EC92E013
:1017C00070E00E94E90FE5C0992329F0E0905D03E5
:1017D00080915E0304C0E090290380912A038093E6
:1017E0001F0380912103882319F080915F0302C0B9
:1017F00080912B0380931E0380912103882319F08D
:101800008091600302C080912C0380931D0380911E
:101810002103882319F08091610302C080912D0378
:1018200080931C038E2D61E00E94E31D20911F0315
:1018300030911E0380911D039FEF899FB0011124F9
:1018400080911C03680F711D6115710579F0522F8D
:1018500040E0430F511D8B01222717FD2095322FA9
:101860008BE193E06E2D0E942B1993C08BE193E0E6
:101870006E2D0E941F198DC0992329F060915D0380
:1018800080915E0304C06091290380912A038093B4
:101890001F0380912103882319F080915F0302C008
:1018A00080912B0380931E0380912103882319F0DC
:1018B0008091600302C080912C0380931D0380916E
:1018C0002103882319F08091610302C080912D03C8
:1018D00080931C038DEE92E00E94841540911C03BE
:1018E00050911D0360911E0370911F038DEE92E0D5
:1018F0000E9430154EC0992329F060915D038091BC
:101900005E0304C06091290380912A0380931F0322
:1019100080912103882319F080915F0302C0809198
:101920002B0380931E0380912103882319F080915B
:10193000600302C080912C0380931D0380912103DA
:10194000882319F08091610302C080912D03809358
:101950001C0380ED92E00E94D01180ED92E0609136
:101960001D0340911C030E94AF1213C0992339F04C
:1019700060915F03409160032091610306C0609114
:101980002B0340912C0320912D0383EE92E00E94C3
:10199000EB151F910F91FF90EF9008950E948B0718
:1019A00080912003882309F44EC0209192032535AD
:1019B00071F480919003882351F4809193038F3FB9
:1019C00029F581E080938E03809390031FC02093BC
:1019D0009303809190038823C9F090918E039330F4
:1019E00011F484E005C0943028F080918F03815079
:1019F00080938F03E92FF0E080912103882319F071
:101A0000E65AFC4F02C0EA5DFC4F208380918E03B2
:101A10008F5F80938E03843320F010928E03109298
:101A2000900380919003882371F080918F03882325
:101A300051F480918E03843030F0109290030E9414
:101A4000EE0710928E0308958DE061E00E94E31D81
:101A50008DE061E00E94221E6CE271E080E090E087
:101A60000E94C31C8DE060E00E94221E82E995E086
:101A700040E052EC61E070E00E940A1A0895209163
:101A8000C50330E08091C403281B3109C9010895C2
:101A90004091C4038091C503481718F02FEF3FEF22
:101AA0000AC0E42FF0E0EC55FC4F8081282F30E095
:101AB0004F5F4093C403C9010895E091C40380912E
:101AC000C503E81718F0EFEFFFEF06C0F0E0EC55A4
:101AD000FC4F8081E82FF0E0CF0108950895109227
:101AE000EC031092EB0388EE93E0A0E0B0E080936B
:101AF000ED039093EE03A093EF03B093F0038BE517
:101B000092E09093EA038093E9030895CF92DF92E5
:101B1000EF92FF920F931F93CF93DF937C016B01A2
:101B20008A018091E8038823A1F0C0E0D0E00DC0D5
:101B3000D701ED91FC91D601AC0FBD1F0190F08152
:101B4000E02DC7016C9109952196C017D10780F34C
:101B500004C0CB01642F0E94E70DC801DF91CF9133
:101B60001F910F91FF90EF90DF90CF900895DF933A
:101B7000CF930F92CDB7DEB7FC0169838091E80364
:101B80008823C9F08091E703803238F081E090E04B
:101B90009383828320E030E015C08091E603E82F34
:101BA000F0E0EA53FC4F998190838F5F8093E603C6
:101BB0008093E70305C0CE01019661E00E94E70D26
:101BC00021E030E0C9010F90CF91DF910895482FB7
:101BD000613210F081E008958091F503843011F0B6
:101BE00082E0089560934004AFE1B4E0842F9C014B
:101BF000F90102C081918D938E2F841B8617D0F33B
:101C000080E008951F920F920FB60F9211242F9328
:101C10003F934F935F936F937F938F939F93AF9374
:101C2000BF93EF93FF938091B90090E0887F90700D
:101C30008036910509F4F2C081369105CCF58832E1
:101C4000910509F47BC089329105B4F48031910586
:101C500009F46FC0813191053CF4009709F447C144
:101C6000089709F04FC165C08831910509F466C035
:101C7000809709F047C182C08034910509F4A4C05F
:101C80008134910544F48033910509F482C0C897EA
:101C900009F038C189C08035910509F489C08835BB
:101CA000910509F496C08834910509F02BC1AEC0A6
:101CB0008839910509F413C189399105ECF4883705
:101CC000910509F4ABC0893791054CF4883691052C
:101CD00009F4A4C08037910509F014C19FC0883869
:101CE000910509F4FCC08039910509F49DC0803844
:101CF000910509F007C198C0803B910509F4C6C061
:101D0000813B91054CF4803A910509F49FC0883AD3
:101D1000910509F0F7C0BAC0803C910509F4E3C011
:101D2000883C910509F4DFC0883B910509F0EAC0C1
:101D3000C2C08091F6038093BB00CFC090911D0478
:101D400080911E04981768F490911D04E92FF0E02B
:101D5000E350FC4F80818093BB009F5F90931D04F4
:101D6000BCC08091F703882309F44BC085ED8093B4
:101D7000BC008091BC0084FDFCCFC2C080E2809397
:101D8000620485ED8093BC008091BC0084FDFCCF93
:101D9000B7C080E38093620485ED8093BC0080919E
:101DA000BC0084FDFCCFACC088E3809362049BC080
:101DB00080911D049091BB00E82FF0E0E350FC4FB0
:101DC00090838F5F80931D0490911D0480911E0469
:101DD00082C080911D049091BB00E82FF0E0E35099
:101DE000FC4F90838F5F80931D048091F7038823BD
:101DF00041F085ED8093BC008091BC0084FDFCCF58
:101E00007FC081E08093F80384EA6EC085ED809303
:101E1000BC008091BC0084FDFCCF72C083E0809345
:101E2000F5031092610459C080916104803208F07A
:101E300056C0809161049091BB00E82FF0E0EF5B09
:101E4000FB4F90838F5F8093610447C08091610452
:101E5000803230F4E0916104F0E0EF5BFB4F1082E0
:101E600085ED8093BC008091BC0084FDFCCF109276
:101E7000F50360916104E091FB03F091FC0381E4C0
:101E800094E070E00995109261042DC084E0809385
:101E9000F50310923F0410924004E091F903F09191
:101EA000FA03099580914004882329F481E0809306
:101EB000400410921F0490913F04E92FF0E0E15E8E
:101EC000FB4F80818093BB009F5F90933F04909174
:101ED0003F0480914004981710F485EC01C085E818
:101EE0008093BC000FC085EC8093BC0009C01092A9
:101EF000620485ED8093BC008091BC0084FDFCCF22
:101F00001092F503FF91EF91BF91AF919F918F9147
:101F10007F916F915F914F913F912F910F900FBEE5
:101F20000F901F901895FC01809163048C3090F401
:101F300080838F5F80936304815090E0FC01EE0FFB
:101F4000FF1FE80FF91FEC59FB4F88EB9BE09283D2
:101F5000818308958FEF80830895FC0120812C30C8
:101F6000B8F58181992787FD909548E850E0481B96
:101F7000590B440F551F440F551F6417750784F004
:101F80008281992787FD909548E552E0481B590BBF
:101F9000440F551F440F551F641775070CF4AB0110
:101FA00042505040CA01AA2797FDA095BA2F880F2A
:101FB000991FAA1FBB1F4FB7F89430E0F901EE0F2D
:101FC000FF1FE20FF31FEC59FB4F928381834FBF3A
:101FD0000895AF92BF92CF92DF92EF92FF920F934C
:101FE0001F93CF93DF93EC019B0182E0603278076F
:101FF0000CF048C077FF03C020E030E005C0653B2F
:10200000710514F024EB30E000D000D0B90188272E
:1020100077FD8095982F2981332727FD3095E8E8B3
:10202000AE2EB12CA21AB30AAA0CBB1CAA0CBB1C64
:10203000CC24B7FCC094DC2CEA81FF27E7FDF095A7
:1020400028E532E02E1B3F0B220F331F220F331FD8
:10205000442737FD4095542FEDB7FEB721833283D7
:102060004383548320E030E040E050E004EBE02E76
:10207000F12C012D112D0E940B1F9B010F900F9031
:102080000F900F90CE01B9010E94AD0FDF91CF915B
:102090001F910F91FF90EF90DF90CF90BF90AF9086
:1020A0000895CF92DF92EF92FF921F93CF93DF9329
:1020B000EC01162F7A01690188818C3008F064C028
:1020C000862F61E00E94E31D888190E0FC01EE0F05
:1020D000FF1FE80FF91FEC59FB4F1F738081807CB5
:1020E000812B808380E292E08E199F0964E070E08A
:1020F0000E941A22698380E699E08C199D0964E0A8
:1021000070E00E941A226A83A8818A2F6CE00E94E4
:102110000E22682F70E0AB01440F551F460F571F6A
:10212000440F551F440F551F20E030E0C901840FB4
:10213000951FFC01EE0FFF1FE80FF91FEC59FB4F35
:10214000808186FD15C02F5F3F4F2C30310571F720
:1021500024C01092800082E080938100109285005C
:1021600010928400B19A80916F00826080936F001A
:102170008A2F90E0FC01EE0FFF1FE80FF91FEC59CA
:10218000FB4F8081806480838881DF91CF911F9194
:10219000FF90EF90DF90CF900895672BD1F2E8CFBA
:1021A00040E252E020E639E00E94511008951F926B
:1021B0000F920FB60F9211242F933F934F935F937B
:1021C0006F937F938F939F93AF93BF93EF93FF93FF
:1021D0008091880487FF05C01092850010928400CA
:1021E0002BC020918804332727FD3095809163040C
:1021F00090E02817390704F580918804992787FD16
:102200009095FC01EE0FFF1FE80FF91FEC59FB4FF3
:10221000808186FF11C080918804992787FD909561
:10222000FC01EE0FFF1FE80FF91FEC59FB4F8081F7
:102230008F7360E00E94221E809188048F5F8093DC
:10224000880420918804332727FD3095809163040A
:1022500090E0281739070CF04EC0809188048C302C
:102260000CF049C020918400309185008091880451
:10227000992787FD9095FC01EE0FFF1FE80FF91FCE
:10228000EC59FB4F81819281280F391F30938900CF
:102290002093880080918804992787FD9095FC0100
:1022A000EE0FFF1FE80FF91FEC59FB4F808186FFEF
:1022B0002BC080918804992787FD9095FC01EE0F33
:1022C000FF1FE80FF91FEC59FB4F80818F7361E00E
:1022D0000E94221E19C080E49CE905C08091840000
:1022E00090918500049690938900809388008FEFE9
:1022F0008093880409C080918400909185000496A1
:1023000080549C4940F3EACFFF91EF91BF91AF9188
:102310009F918F917F916F915F914F913F912F91FD
:102320000F900FBE0F901F901895FC0180911C021A
:10233000808380911D02818380911E02828313829B
:102340000895FC0180911C02808380911D0281838D
:1023500080911E02828313820895DC01862F90E013
:10236000FC01EE0FFF1FE80FF91FE45EFD4F8081B7
:102370008C93818111968C931197828112968C9304
:10238000129713966C9381E0809380008BE080938A
:10239000810083E08093B00084E08093B1000895D1
:1023A000DC01862F90E0FC01EE0FFF1FE80FF91F04
:1023B000E45EFD4F80818C93818111968C931197FF
:1023C000828112968C93129713966C93089583E1F1
:1023D0000E94611DAA2797FDA095BA2FBC01CD01CF
:1023E0000E943F0420E030E040E251E40E943902C4
:1023F00020E030E040E85AE30E9439020895FC01F1
:1024000080810E94831D0895FF920F931F938C017A
:10241000F62EFC01828161E00E94E31DF8018281B9
:102420006F2D0E94221E1F910F91FF9008951F9300
:10243000162F85E061E00E94E31D86E061E00E94C6
:10244000E31D87E061E00E94E31D88E061E00E94F7
:10245000E31D87E061E00E94221E88E060E00E94A8
:10246000221E85E0612F70E00E94831D86E0612FAF
:1024700070E00E94831D1F9108951F93162F85E021
:1024800061E00E94E31D86E061E00E94E31D87E0B9
:1024900061E00E94E31D88E061E00E94E31D87E0A7
:1024A00060E00E94221E88E061E00E94221E85E01A
:1024B000612F70E00E94831D86E0612F70E00E9412
:1024C000831D1F9108951F93162F85E061E00E94E0
:1024D000E31D86E061E00E94E31D87E061E00E9469
:1024E000E31D88E061E00E94E31D87E060E00E9458
:1024F000221E88E060E00E94221E85E0612F70E0CD
:102500000E94831D86E0612F70E00E94831D1F9151
:1025100008951F93162F85E061E00E94E31D86E079
:1025200061E00E94E31D87E061E00E94E31D88E016
:1025300061E00E94E31D87E061E00E94221E88E0C6
:1025400061E00E94221E85E0612F70E00E94831DE1
:1025500086E0612F70E00E94831D1F9108950F9304
:102560001F93182F092F613041F4642F70E00E94EF
:10257000FF11812F902F61E007C0642F70E00E944F
:10258000FF11812F902F60E00E9404121F910F9184
:10259000089560E00E94AD1108950F931F938CE0A1
:1025A00060E00E94E31D8DE060E00E94E31D8CE08E
:1025B0000E94761E182F092F8DE00E94761E212F73
:1025C000302FA90173E0440F551F7A95E1F7220FD0
:1025D000331F420F531F480F591FCA011F910F91FC
:1025E000089560E00E94AD1108950F931F93CF935B
:1025F000DF93EB018FE00E94611D8C0180E10E945E
:10260000611D40E050E00C171D0714F441E050E05C
:102610009A0173E0220F331F7A95E1F7440F551F9B
:10262000240F351F40E050E08C179D0714F441E063
:1026300050E0240F351FC901DF91CF911F910F91F9
:10264000089560E00E94AD1108950F931F938C01CF
:10265000FC01808161E00E94E31DF801818160E05E
:102660000E94E31DF801808160E00E94221E82E04A
:1026700090E00E941C1DF801808161E00E94221EF2
:102680008AE090E00E941C1DF801808160E00E94B9
:10269000221E0E949D1C6093940370939503809367
:1026A00096039093970378940E949D1C60939403E3
:1026B000709395038093960390939703609198038A
:1026C0007091990380919A0390919B031F910F91B0
:1026D0000895CF93DF93EC010E948F1C2091890411
:1026E00030918A0440918B0450918C04621B730BCF
:1026F000840B950B6B30710581059105A8F0CE0117
:102700000E94251360938D0470938E0480938F0430
:10271000909390040E948F1C6093890470938A04A4
:1027200080938B0490938C0460918D0470918E043F
:1027300080918F0490919004DF91CF9108950E9431
:1027400069130E943F0420E030E048E652E40E9412
:10275000330320E030E040E051E40E94DB010895C3
:102760000F931F938C0182E0F801808383E08183C3
:1027700082E061E00E94E31DF801818160E00E9437
:10278000E31D81E063E777E042E050E00E94CA1B6E
:102790001F910F910895FF920F931F93CF93DF9393
:1027A0008C01EB01FF24EB81FF27E7FDF095E95950
:1027B000FD4FD80114968C91149715966C9141E0B9
:1027C00020810E94C91EF801868160E00E94221EBD
:1027D000D80116968C9161E00E94221EF3942197F5
:1027E000B4E0FB1601F7DF91CF911F910F91FF909D
:1027F00008958F929F92AF92BF92CF92DF92EF9205
:10280000FF920F931F93CF93DF935A016B0137FD14
:1028100074C0E1E0F0E040E050E0CF01880F991F84
:1028200003E0EE0FFF1F0A95E1F7E80FF91F4F5F76
:102830005F4F241735078CF7C1E0D0E040E050E04F
:10284000CE01880F991FB3E0CC0FDD1FBA95E1F7D9
:10285000C80FD91F4F5F5F4F241735078CF740E033
:1028600050E0A1E08A2E912C0CC0C401880F991F62
:1028700063E0880C991C6A95E1F7880E991E4F5FFA
:102880005F4F421753078CF3BF01882777FD809570
:10289000982F0E943F049B01AC01C601B5010E9424
:1028A00033030E94BB227B018C01BE01882777FD88
:1028B0008095982F0E943F049B01AC01C801B7018D
:1028C0000E9439029B01AC01C601B5010E94DB01E7
:1028D0007B018C01B401882777FD8095982F0E9499
:1028E0003F049B01AC01C801B7010E9433030E9461
:1028F000BB220E949D04CB011CC088249924821A0B
:10290000930AC0E0D0E0C601B50120E030E040E22B
:1029100051E40E9439025B016C012196C815D9056A
:1029200094F30E949D04DC01CB016AE070E00E94F8
:102930001A22DF91CF911F910F91FF90EF90DF90BE
:10294000CF90BF90AF909F908F9008952F923F921D
:102950004F925F926F927F929F92AF92BF92CF926F
:10296000DF92EF92FF920F931F93DF93CF9300D0EC
:1029700000D0CDB7DEB73C017A018B0119821A82F3
:102980001B821C82CB01BA0120E030E040E050E025
:102990000E940F0487FD03C0AA24BB2409C017FBB3
:1029A000109517F9109580E28983E1E0AE2EB12CE5
:1029B000CC24DD24992473E0272E312C2E01089499
:1029C000411C511C91012C193D09C301B801A701FB
:1029D0000E94F913181619063CF023E0C216D10420
:1029E00039F09920B1F00EC023E0C216D10441F4B1
:1029F000F201EA0DFB1D805F80839924939406C049
:102A000099249394F201EA0DFB1D80830894A11C84
:102A1000B11C84E0A816B1043CF40894C11CD11C7C
:102A200027E0C216D10471F6C301BE016F5F7F4F6C
:102A30000E94CB130F900F900F900F90CF91DF91CA
:102A40001F910F91FF90EF90DF90CF90BF90AF90CC
:102A50009F907F906F905F904F903F902F90089540
:102A6000EF92FF920F931F93CF93DF93EC017A01C4
:102A70008B0180919104882341F4CE010E94A61419
:102A8000809191048F5F80939104C801B7012091D8
:102A9000A0033091A1034091A2035091A3030E948F
:102AA000DF03882351F1E092A003F092A103009389
:102AB000A2031093A3030E948F1C20919C033091CA
:102AC0009D0340919E0350919F03621B730B840BE7
:102AD000950B653671058105910578F00E948F1C74
:102AE00060939C0370939D0380939E0390939F0338
:102AF000CE01B801A7010E94A614DF91CF911F91CA
:102B00000F91FF90EF9008950F931F938C01DC01BC
:102B100013966C93139770E0FB01EE0FFF1FE60F07
:102B2000F71FE45EFD4F80818C93218111962C93D9
:102B30001197928112969C93129714968C931497E6
:102B400015962C93159716969C9361E00E94E31DB1
:102B5000F801858161E00E94E31DD80116968C91F1
:102B600061E00E94E31D1F910F9108950E9495114D
:102B70000895FC0184810E94611DAA2797FDA095FC
:102B8000BA2FBC01CD010E943F0420E030E040EAB2
:102B90005BE30E94390220E030E048EC52E40E94FE
:102BA00039020895DC0113966C93139770E0645F0B
:102BB0007F4FFB01EE0FFF1FE60FF71FE45EFD4F97
:102BC00080818C9314968C9360E00E94E31D08959D
:102BD0000E94951108950F931F93142F022F89E0DF
:102BE00070E00E94831D8AE0612F70E00E94831DC7
:102BF0008BE0602F70E00E94831D1F910F9108955C
:102C000060E00E94AD110895CF93DF93EC01AE8197
:102C1000BF818C9190E0863891050CF45CC0833EB6
:102C200091050CF058C0888599858330910509F08D
:102C300056C011968C91119790E0813291050CF459
:102C40004AC0CA970CF047C012968C9190E0883029
:102C500091050CF440C00F970CF03DC01D8238C0A8
:102C600011968C91119790E083349105A4F18237ED
:102C700091058CF5FD01339620E030E040E050E016
:102C8000BD016D5B7F4F8291319690E08830910558
:102C900014F10F9704F5808190E08731910524F1BC
:102CA0008A9714F55695479537952795506806C02D
:102CB0000F978CF456954795379527953296E617DA
:102CC000F70709F780E28D8329833A834B835C837E
:102CD00081E0888301C080E0DF91CF910895833443
:102CE00091050CF0BDCFF7CF808190E08830910541
:102CF00094F3DECF0F931F938C01862F609394047F
:102D000060E00E94E31DF89492E09093B0009093ED
:102D1000B10084E68093B300E2EBF0E01082E08142
:102D200090937000789482E080939604109201054D
:102D300080E090E0A0E0B0E0F801808F918FA28F5A
:102D4000B38F138612861586148616861786C801D9
:102D5000419660E071E00E94D71FF801108A1F9130
:102D60000F910895CF93DF93EC018DE994E09F8359
:102D70008E8380910105888719868091960485301D
:102D800089F4CE010E940416882339F0CE016091A7
:102D900094040E947A1681E006C0CE0160919404EA
:102DA0000E947A1680E0DF91CF910895CF93DF9350
:102DB000EC0180919304882341F4CE016091940446
:102DC0000E947A1681E080939304CE010E94B2168D
:102DD000882351F089819A81AB81BC81CD01AA27DA
:102DE000BB278E87109292048091920481111E86D7
:102DF0008F5F809392048E85DF91CF9108954196E5
:102E000060E071E00E94BD1F08951F920F920FB6FF
:102E10000F9211242F933F934F935F936F937F9360
:102E20008F939F93AF93BF93EF93FF9380919404FD
:102E30000E94761E282F80919B0490919C040196FD
:102E400090939C0480939B0480910105843618F034
:102E500085E08093960480919604833091F08430CD
:102E600020F4823009F04AC006C0843011F1853068
:102E700009F044C03DC0222309F040C01092010572
:102E800028C02130D9F520910105E22FF0E0809192
:102E90009B0490919C04EB56FB4F80872F5F2093FF
:102EA000010510929C0410929B0484E08093960488
:102EB00025C02223A1F420910105E22FF0E08091AA
:102EC0009B0490919C04EB56FB4F80872F5F2093CF
:102ED000010510929C0410929B0483E0E7CF80913F
:102EE0009B0490919C048536910540F085E0DECFEF
:102EF000222321F410929C0410929B04FF91EF91E5
:102F0000BF91AF919F918F917F916F915F914F9101
:102F10003F912F910F900FBE0F901F901895CF9259
:102F2000DF92EF92FF920F931F93CF93DF939C0159
:102F3000FC01EA57FF4FE4918E2F90E0880F991F14
:102F4000FC01EE58FF4F05911491FC01E859FF4F29
:102F5000E590F49026563F4FF901D490FC01E458D7
:102F6000FF4FC591D491F8018081CD2CC0948C2164
:102F70008083F70180818D29808361E070E080E0AB
:102F800090E00E94C31CF70180818C218083F801AE
:102F900080818D29808388812D2D30E090E08223EF
:102FA0009323892B11F090E081C0888190E08223E7
:102FB0009323892B11F091E079C0888190E08223DE
:102FC0009323892B11F092E071C0888190E08223D5
:102FD0009323892B11F093E069C0888190E08223CC
:102FE0009323892B11F094E061C0888190E08223C3
:102FF0009323892B11F095E059C0888190E08223BA
:103000009323892B11F096E051C0888190E08223B0
:103010009323892B11F097E049C0888190E08223A7
:103020009323892B11F098E041C0888190E082239E
:103030009323892B11F099E039C0888190E0822395
:103040009323892B11F09AE031C0888190E082238C
:103050009323892B11F09BE029C0888190E0822383
:103060009323892B11F09CE021C0888190E082237A
:103070009323892B11F09DE019C0888190E0822371
:103080009323892B11F09EE011C0888190E0822368
:103090009323892B11F09FE009C0888190E082235F
:1030A0009323892B11F491E101C090E1F801808113
:1030B0008C218083F70180818D298083892F90E086
:1030C000DF91CF911F910F91FF90EF90DF90CF9004
:1030D0000895CF92DF92EF92FF921F93CF93DF93E9
:1030E0006B017C011092B0001092B1008091B00091
:1030F0008C7F82608093B0008091B100877F809345
:10310000B10062E17AE780E090E0A70196010E94B9
:103110002D2210E01F5FE12FF0E0EE0FFF1FE857B8
:10312000FD4FC081D181C217D307A0F360E072E1E7
:103130008AE790E0A70196010E942D22CA01B901F9
:103140009E0140E050E00E942D2221502093B300C8
:103150008091B1001770887F182B1093B100809177
:103160007000846080937000DF91CF911F91FF9079
:10317000EF90DF90CF90089508951F920F920FB6B1
:103180000F9211242F933F934F935F936F937F93ED
:103190008F939F93AF93BF93EF93FF93809103051A
:1031A00090910405A0910505B09106050097A10531
:1031B000B10551F1E0910705F091080580819091EA
:1031C0000905892780838091030590910405A091CA
:1031D0000505B0910605181619061A061B06F4F423
:1031E0008091030590910405A0910505B091060515
:1031F0000197A109B1098093030590930405A09359
:103200000505B09306050AC0809170008B7F8093FE
:1032100070008091020560E00E94221EFF91EF91F4
:10322000BF91AF919F918F917F916F915F914F91DE
:103230003F912F910F900FBE0F901F901895862FE2
:1032400060930205E0E7F0E090819B7F908360E06F
:103250000E94221E0895EF92FF920F931F93CF9327
:10326000DF93862FEA017801890160930205462FDA
:1032700050E0FA01EA57FF4FE491F0E0EE0FFF1F34
:10328000EE58FF4F259134913093080520930705A0
:1032900046565F4FFA0194919093090561E00E94B0
:1032A000E31DE114F1040105110529F48FEF9FEFEF
:1032B000AFEFBFEF11C0BE01660F771F80E090E057
:1032C000A80197010E94EF2128EE33E040E050E092
:1032D0000E942D22C901DA01809303059093040511
:1032E000A0930505B0930605BE0180E090E00E9422
:1032F0006918DF91CF911F910F91FF90EF90089582
:1033000008951F920F920FB60F9211242F933F939F
:103310004F938F939F93EF93FF938091C00082FD13
:103320001DC04091C60020914A0530914B052F5F8A
:103330003F4F2F73307080914C0590914D052817A9
:10334000390771F0E0914A05F0914B05E65FFA4FBD
:10335000408330934B0520934A0502C08091C600FC
:10336000FF91EF919F918F914F913F912F910F90EE
:103370000FBE0F901F901895E0919E05F0919F054C
:10338000E05CFF4F8191919120813181821B930BF1
:103390008F739070892B11F00E94801908951F92ED
:1033A0000F920FB60F9211242F933F938F939F93F9
:1033B000EF93FF9320918E0530918F0580919005BA
:1033C000909191052817390731F48091C1008F7DC4
:1033D0008093C10014C0E0919005F0919105E25BEB
:1033E000FA4F2081809190059091910501968F73FD
:1033F000907090939105809390052093C600FF9163
:10340000EF919F918F913F912F910F900FBE0F9051
:103410001F901895AF92BF92DF92EF92FF920F9399
:103420001F93CF93DF93EC017A018B01DD244030B1
:1034300081EE580780E0680780E0780711F0DD240E
:10344000D39491E0A92EB12CEC89FD89DD2069F09F
:10345000C50108A002C0880F991F0A94E2F7808373
:1034600060E079E08DE390E005C0108260E874E8E8
:103470008EE190E0A80197010E942D22215030405A
:1034800040405040569547953795279580E120302C
:10349000380720F0DD2011F0DD24D6CFE889F98946
:1034A0003083EA89FB89208319A2EE89FF89408154
:1034B00021E030E0C9010C8C02C0880F991F0A94EA
:1034C000E2F7482B4083EE89FF894081C9010D8CCA
:1034D00002C0880F991F0A94E2F7482B4083EE89B7
:1034E000FF894081C9010E8C02C0880F991F0A9480
:1034F000E2F7482B4083EE89FF8980810F8C02C060
:10350000220F331F0A94E2F7209528232083DF91AE
:10351000CF911F910F91FF90EF90DF90BF90AF90F0
:103520000895DC011C96ED91FC911D97E05CFF4F26
:103530002191319180819181281B390B2F7330703B
:10354000C9010895DC011C96ED91FC911D97E05C8A
:10355000FF4F20813181E054F040DF01AE5BBF4F6F
:103560008D919C9111972817390719F42FEF3FEF90
:1035700007C08D919C91E80FF91F8081282F30E0C2
:10358000C9010895DC011C96ED91FC911D97E05C4A
:10359000FF4F20813181E054F040DF01AE5BBF4F2F
:1035A0008D919C9111972817390719F42FEF3FEF50
:1035B00010C08D919C911197E80FF91F20818D917A
:1035C0009C91119701968F73907011969C938E9396
:1035D00030E0C9010895DC0191968C919197882380
:1035E00039F05496ED91FC915597808186FFF9CF83
:1035F00091961C920895CF93DF93EC01EE85FF85A1
:10360000E05CFF4F20813181E054F0402F5F3F4F5D
:103610002F733070DF01AE5BBF4F8D919C9111977E
:1036200028173907D1F3E05CFF4F80819181E05486
:10363000F040E80FF91F6083EE85FF85E05CFF4FE7
:1036400031832083EE89FF89208181E090E00F8C17
:1036500002C0880F991F0A94E2F7282B208381E08B
:1036600089A3EC89FD8980818064808381E090E07A
:10367000DF91CF910895109295051092940588EEF0
:1036800093E0A0E0B0E08093960590939705A09317
:103690009805B09399058CE992E0909393058093F7
:1036A00092058AE095E090939F0580939E058EE4B5
:1036B00095E09093A1058093A00585EC90E0909310
:1036C000A3058093A20584EC90E09093A5058093D8
:1036D000A40580EC90E09093A7058093A60581EC6B
:1036E00090E09093A9058093A80582EC90E09093D8
:1036F000AB058093AA0586EC90E09093AD0580938E
:10370000AC0584E08093AE0583E08093AF0587E04D
:103710008093B00585E08093B10581E08093B20588
:103720000895CF93DF930E94261D0E94240DCCEBB9
:10373000D9E10E94CE0C2097E1F30E94BC19F9CF89
:10374000CF92DF92EF92FF920F931F93CF93DF936D
:103750007C016B018A01C0E0D0E00FC0D6016D9101
:103760006D01D701ED91FC910190F081E02DC70131
:103770000995C80FD91F015010400115110571F7A7
:10378000CE01DF91CF911F910F91FF90EF90DF90CD
:10379000CF900895823000F5E82FF0E0EE0FFF1F84
:1037A000EC54FA4F71836083882319F08130A1F4BF
:1037B00008C0809169008C7F842B80936900E89A0F
:1037C000089580916900440F551F440F551F837F52
:1037D000842B80936900E99A08951F920F920FB687
:1037E0000F9211242F933F934F935F936F937F9387
:1037F0008F939F93AF93BF93EF93FF938091B40503
:103800009091B505892B29F0E091B405F091B505AB
:103810000995FF91EF91BF91AF919F918F917F910A
:103820006F915F914F913F912F910F900FBE0F902D
:103830001F9018951F920F920FB60F9211242F937D
:103840003F934F935F936F937F938F939F93AF9328
:10385000BF93EF93FF938091B6059091B705892BA5
:1038600029F0E091B605F091B7050995FF91EF9128
:10387000BF91AF919F918F917F916F915F914F9188
:103880003F912F910F900FBE0F901F9018951F9290
:103890000F920FB60F9211242F933F938F939F9304
:1038A000AF93BF938091BC059091BD05A091BE05DB
:1038B000B091BF053091C0050196A11DB11D232F08
:1038C0002D5F2D3720F02D570196A11DB11D20939E
:1038D000C0058093BC059093BD05A093BE05B09331
:1038E000BF058091B8059091B905A091BA05B09136
:1038F000BB050196A11DB11D8093B8059093B90534
:10390000A093BA05B093BB05BF91AF919F918F91E2
:103910003F912F910F900FBE0F901F9018958FB76A
:10392000F8942091BC053091BD054091BE055091A1
:10393000BF058FBFB901CA0108959FB7F8942091C0
:10394000B8053091B9054091BA055091BB0586B5CF
:10395000A89B06C08F3F21F02F5F3F4F4F4F5F4F17
:103960009FBF542F432F322F2227280F311D411D77
:10397000511D82E0220F331F441F551F8A95D1F736
:10398000B901CA0108959B01AC017FB7F8948091F9
:10399000B8059091B905A091BA05B091BB0566B57F
:1039A000A89B05C06F3F19F00196A11DB11D7FBFF7
:1039B000BA2FA92F982F8827860F911DA11DB11D01
:1039C00062E0880F991FAA1FBB1F6A95D1F7BC013F
:1039D0002DC0FFB7F8948091B8059091B905A091DA
:1039E000BA05B091BB05E6B5A89B05C0EF3F19F03D
:1039F0000196A11DB11DFFBFBA2FA92F982F8827AF
:103A00008E0F911DA11DB11DE2E0880F991FAA1F05
:103A1000BB1FEA95D1F7861B970B885E9340C8F2CF
:103A2000215030404040504068517C4F21153105B5
:103A30004105510571F60895019739F0880F991FD6
:103A4000880F991F02970197F1F70895789484B52C
:103A5000826084BD84B5816084BD85B5826085BD8A
:103A600085B5816085BDEEE6F0E080818160808370
:103A7000E1E8F0E010828081826080838081816053
:103A80008083E0E8F0E0808181608083E1EBF0E01A
:103A9000808184608083E0EBF0E0808181608083BE
:103AA000EAE7F0E0808184608083808182608083A7
:103AB0008081816080838081806880831092C100D2
:103AC0000895982F8E3008F09E5097708091520282
:103AD0008295880F880F807C892B80937C00809151
:103AE0007A00806480937A0080917A0086FDFCCF12
:103AF0002091780040917900942F80E030E0282BCD
:103B0000392BC90108951F93CF93DF93182FEB0131
:103B100061E00E94E31D209709F44AC0CF3FD10520
:103B200009F449C0E12FF0E0E255FF4F8491833062
:103B3000C1F0843028F4813051F08230B1F50CC0EE
:103B4000863019F1873049F1843079F514C084B595
:103B5000806884BDC7BD33C084B5806284BDC8BDE4
:103B60002EC080918000806880938000D09389006F
:103B7000C093880024C08091800080628093800080
:103B8000D0938B00C0938A001AC08091B0008068E7
:103B90008093B000C093B30012C08091B0008062E7
:103BA0008093B000C093B4000AC0C038D1051CF4A3
:103BB000812F60E002C0812F61E00E94221EDF9110
:103BC000CF911F910895CF93DF93482F50E0CA0102
:103BD00086569F4FFC0134914A575F4FFA018491FA
:103BE000882369F190E0880F991FFC01E859FF4F85
:103BF000A591B491FC01EE58FF4FC591D491662375
:103C000051F42FB7F8948C91932F909589238C932E
:103C1000888189230BC0623061F42FB7F8948C91AE
:103C2000932F909589238C938881832B88832FBF32
:103C300006C09FB7F8948C91832B8C939FBFDF9124
:103C4000CF910895482F50E0CA0182559F4FFC0143
:103C50002491CA0186569F4FFC0194914A575F4FA9
:103C6000FA013491332309F440C0222351F1233067
:103C700071F0243028F42130A1F0223011F514C065
:103C80002630B1F02730C1F02430D9F404C080913F
:103C900080008F7703C0809180008F7D80938000AB
:103CA00010C084B58F7702C084B58F7D84BD09C0F4
:103CB0008091B0008F7703C08091B0008F7D80939A
:103CC000B000E32FF0E0EE0FFF1FEE58FF4FA5917D
:103CD000B4912FB7F894662321F48C9190958923A1
:103CE00002C08C91892B8C932FBF0895682F70E0B0
:103CF000CB0182559F4FFC012491CB0186569F4FEB
:103D0000FC0144916A577F4FFB019491992319F468
:103D100020E030E03CC0222351F1233071F0243008
:103D200028F42130A1F0223011F514C02630B1F072
:103D30002730C1F02430D9F404C0809180008F77FF
:103D400003C0809180008F7D8093800010C084B577
:103D50008F7702C084B58F7D84BD09C08091B0008B
:103D60008F7703C08091B0008F7D8093B000892F42
:103D700090E0880F991F84589F4FFC01A591B49142
:103D80008C9120E030E0842311F021E030E0C90183
:103D90000895BF92CF92DF92EF92FF920F931F93FD
:103DA000CF93DF93E82EF62EB42EC7E0D0E0022F9B
:103DB00010E087E0C82ED12CBB2059F4B6016C1B53
:103DC0007D0BC80102C0959587956A95E2F7BC0105
:103DD00007C0B8010C2E02C0759567950A94E2F7EA
:103DE00061708E2D0E94221E8F2D61E00E94221E86
:103DF0008F2D60E00E94221E21979FEFCF3FD907B1
:103E0000D9F6DF91CF911F910F91FF90EF90DF9046
:103E1000CF90BF9008952F923F924F925F926F92F2
:103E20007F928F929F92AF92BF92CF92DF92EF924A
:103E3000FF920F931F93DF93CF93CDB7DEB73B0174
:103E40004C0119012A016D897E898F89988D6A1923
:103E50007B098C099D09621A730A840A950AA401D8
:103E600093010E94EF21E218F30804091509A80143
:103E700097010E944F222A0D3B1D4C1D5D1DB9016B
:103E8000CA01CF91DF911F910F91FF90EF90DF90CA
:103E9000CF90BF90AF909F908F907F906F905F90EA
:103EA0004F903F902F9008950F931F93CF93DF93E0
:103EB000EC018B016F5F7F4F888199810E941521F2
:103EC000009711F480E005C0998388831B830A83DF
:103ED00081E0DF91CF911F910F910895CF93DF93F0
:103EE000EC0188819981892B29F08A819B81861731
:103EF000970760F4CE010E94541F882341F08C8103
:103F00009D81892B19F4E881F981108281E0DF918C
:103F1000CF910895CF93DF93EC0188819981009729
:103F200011F00E947D20198218821D821C821B8242
:103F30001A82DF91CF910895EF92FF920F931F9312
:103F4000CF93DF93EC017B018A01BA010E946E1FBF
:103F5000882321F4CE010E948A1F07C01D830C8391
:103F600088819981B7010E94EF06CE01DF91CF9140
:103F70001F910F91FF90EF900895CF93DF93EC0185
:103F8000198218821B821A821D821C821E82611570
:103F9000710551F0DB010D900020E9F71197A61B88
:103FA000B70BAD010E949C1FDF91CF9108950F9335
:103FB0001F93182F092F6115710559F0DB010D9022
:103FC0000020E9F71197A61BB70BAD010E949C1FBB
:103FD00002C00E948A1F812F902F1F910F91089578
:103FE000FC01808191810E947D2008950F931F9391
:103FF000CF93DF93BC018230910510F462E070E052
:10400000E091C105F091C205A0E0B0E040E050E0D1
:1040100024C08081918186179707D0F08617970773
:1040200071F482819381109729F013969C938E935B
:1040300012972CC09093C2058093C10527C04115EB
:10404000510519F08417950718F4EF018D01AC01A3
:10405000DF01828193819C01F9013097D1F64115EE
:104060005105F9F0CA01861B970B8430910580F445
:104070008A819B810115110521F0F80193838283C8
:1040800004C09093C2058093C105FE0132962FC0F3
:10409000FE01E80FF91F619371930297998388835A
:1040A00026C08DB79EB7885790402091530230911B
:1040B000540228173907C8F4AC01421B530B4617AA
:1040C000570798F0CB0102964817590770F0820FF6
:1040D000931F9093540280935302909356028093BF
:1040E0005502F9016193719302C0E0E0F0E0CF0165
:1040F000DF91CF911F910F910895CF93DF939C0192
:10410000009709F48FC0EC0122971B821A826091FC
:10411000C1057091C2056115710581F4888199818D
:10412000820F931F209153023091540228173907B0
:1041300039F5D0935402C093530274C0DB0140E0C0
:1041400050E0AC17BD0708F1BB83AA83FE012191A3
:104150003191E20FF31FAE17BF0779F48D919C9157
:104160001197280F391F2E5F3F4F398328831296EE
:104170008D919C9113979B838A834115510571F40E
:10418000D093C205C093C1054DC012968D919C91EC
:104190001397AD01009711F0DC01D3CFDA0113962C
:1041A000DC93CE931297FA0121913191E20FF31F24
:1041B000CE17DF0769F488819981280F391F2E5F98
:1041C0003F4FFA01318320838A819B8193838283CD
:1041D000E0E0F0E0DB0112968D919C91139700973F
:1041E00019F0BC01FD01F6CFAB014E5F5F4FDB0163
:1041F0008D919C91840F951F209153023091540210
:104200002817390779F4309729F41092C2051092D3
:10421000C10502C013821282425050405093540292
:1042200040935302DF91CF9108956F927F928F92C6
:104230009F92AF92BF92CF92DF92EF92FF920F9335
:104240001F93CF93DF938C01009729F4CB010E9439
:10425000F61F8C01B4C08EEFE82E8FEFF82EE00E23
:10426000F11E5801A60EB71EAE14BF0408F4A5C077
:10427000D7014D915C91119746175707B8F045301B
:10428000510508F49CC0CA0104978617970708F4E3
:1042900096C042505040461B570BF5014193519335
:1042A0006D937C93CF010E947D2089C04B01841ABD
:1042B000950A3801640E751EA091C105B091C20522
:1042C000CC24DD24E0E0F0E047C0A615B705A9F551
:1042D000CD91DC911197CE0102968815990568F170
:1042E000CE0188199909029612962C91129713966D
:1042F0003C91059758F0F50122833383C819D909F9
:10430000D183C083D7016D937C9309C04E5F5F4F0B
:104310004C0F5D1FF70151834083C901FC01C1149B
:10432000D10431F0D6011396FC93EE93129747C057
:10433000F093C205E093C10542C08D919C91119705
:10434000E817F90708F4FC016D0112968C91129799
:1043500013969C919C01D901109709F0B6CF8091DA
:1043600053029091540286159705B1F4E617F707AA
:1043700098F48DB79EB788579040A816B906E8F410
:10438000B0925402A0925302B0925602A0925502EB
:10439000F7017183608313C0CB010E94F61FEC010B
:1043A000009759F0D7014D915C91B8010E94E60643
:1043B000C8010E947D208E0102C000E010E0C8010B
:1043C000DF91CF911F910F91FF90EF90DF90CF90F1
:1043D000BF90AF909F908F907F906F900895629F55
:1043E000D001739FF001829FE00DF11D649FE00DED
:1043F000F11D929FF00D839FF00D749FF00D659F4E
:10440000F00D9927729FB00DE11DF91F639FB00D4C
:10441000E11DF91FBD01CF0111240895991B79E019
:1044200004C0991F961708F0961B881F7A95C9F744
:104430008095089597FB092E07260AD077FD04D0B2
:1044400049D006D000201AF4709561957F4F0895E9
:10445000F6F7909581959F4F0895A1E21A2EAA1B19
:10446000BB1BFD010DC0AA1FBB1FEE1FFF1FA21724
:10447000B307E407F50720F0A21BB30BE40BF50B21
:10448000661F771F881F991F1A9469F760957095AA
:10449000809590959B01AC01BD01CF01089597FBDC
:1044A000092E05260ED057FD04D0D7DF0AD0001CF8
:1044B00038F450954095309521953F4F4F4F5F4FC1
:1044C0000895F6F790958095709561957F4F8F4F81
:1044D0009F4F0895AA1BBB1B51E107C0AA1FBB1F1A
:1044E000A617B70710F0A61BB70B881F991F5A9580
:1044F000A9F780959095BC01CD0108952F923F9228
:104500004F925F926F927F928F929F92AF92BF92E3
:10451000CF92DF92EF92FF920F931F93CF93DF938F
:10452000CDB7DEB7CA1BDB0B0FB6F894DEBF0FBEEC
:10453000CDBF09942A88398848885F846E847D8439
:104540008C849B84AA84B984C884DF80EE80FD803B
:104550000C811B81AA81B981CE0FD11D0FB6F894B1
:10456000DEBF0FBECDBFED010895EE0FFF1F05901A
:10457000F491E02D09943DD080F09F3740F49111E3
:104580000EF04FC060E070E080E89FEB089526F4E5
:104590001B16611D711D811D01C01BC0882371F494
:1045A000772321F09850872B762F07C0662311F4CC
:1045B00099270DC09051862B70E060E02AF09A9503
:1045C000660F771F881FDAF7880F9695879597F9FA
:1045D00008959F3F49F0915028F486957795679507
:1045E000B7959F5F80389F4F880F9695879597F96D
:1045F000089525D0A0F0BEE7B91788F4BB279F38EF
:1046000060F41616B11D672F782F8827985FF7CFB3
:10461000869577956795B11D93959639C8F308955A
:10462000E894BB2766277727CB0197F9089557FDB4
:104630009058440F551F59F05F3F71F04795880F10
:1046400097FB991F61F09F3F79F0879508951216A7
:1046500013061406551FF2CF4695F1DF08C0161653
:1046600017061806991FF1CF869571056105089404
:10467000089510E0C8ECD0E004C0FE010E94B7220B
:0C4680002296CA3CD107C9F7F894FFCF7E
:10468C000000000000000000000001020203030310
:10469C0003040404040404040405050505050505C8
:1046AC0005050505050505050506060606060606A7
:1046BC00060606060606060606060606060606068E
:1046CC000606060606060606060707070707070777
:1046DC00070707070707070707070707070707075E
:1046EC00070707070707070707070707070707074E
:1046FC00070707070707070707070707070707073E
:10470C000707070707070707070808080808080826
:10471C00080808080808080808080808080808080D
:10472C0008080808080808080808080808080808FD
:10473C0008080808080808080808080808080808ED
:10474C0008080808080808080808080808080808DD
:10475C0008080808080808080808080808080808CD
:10476C0008080808080808080808080808080808BD
:10477C0008080808080808080808080808080808AD
:10478C000808080808080808080E000F0010001197
:10479C000012001300140015005802010001020160
:1047AC0002030203040304050405060506070607B5
:1047BC000807080908090A090A0B0A0B0C0B0C0D4F
:1047CC000E0F100F101110111211121312130E13D1
:1047DC000E0F01C305640000000000B70D860D3FED
:1047EC000D480D5D0D6E0D3F065B4F666D7D077FB1
:1047FC006F777C395E7971BF86DBCFE6EDFD87FF85
:10480C00EFF7FCB9DEF9F1400000010008002000D0
:10481C00400080000001000400000000FB1AA01BF7
:08482C00911AC21AA21AEB1A3C
:00000001FF
