:100000000C9462000C948A000C948A000C948A0070
:100010000C948A000C948A000C948A000C948A0038
:100020000C948A000C948A000C948A000C948A0028
:100030000C948A000C948A000C948A000C948A0018
:100040000C946A010C948A000C94E8030C941A0432
:100050000C948A000C948A000C948A000C948A00F8
:100060000C948A000C948A00000000080002010031
:100070000003040700000000000000000102040863
:100080001020408001020408102001020408102002
:10009000040404040404040402020202020203032E
:1000A00003030303000000002300260029000000D2
:1000B0000000250028002B0000000000240027007D
:1000C0002A004A0411241FBECFEFD8E0DEBFCDBF07
:1000D00011E0A0E0B1E0EEE2FAE002C005900D927E
:1000E000A231B107D9F721E0A2E1B1E001C01D9230
:1000F000A83CB207E1F710E0C4ECD0E004C02297BE
:10010000FE010E941105C23CD107C9F70E948E046E
:100110000C9415050C940000DC01ED91FC9101900C
:10012000F081E02D099426E040E056E960E070E0BF
:100130008BE291E00E94860360E082E00E943F0231
:1001400060E083E00C943F02CF93DF93EB01660FF6
:10015000672F661F770B6770772760688F70992706
:1001600033E0880F991F3A95E1F7682B792B8BE2E2
:1001700091E00E948C0080E991E00E94B401BE01F0
:100180006F7777278BE291E00E948C0080E991E005
:10019000DF91CF910C94B40164E070E08FE090E0C7
:1001A0000E94A400609120017091210180E090E004
:1001B0000E94A40060911E0170911F0181E090E0F7
:1001C0000E94A40060911C0170911D0182E090E0EA
:1001D0000E94A40060911A0170911B0183E090E0DD
:1001E0000E94A400609118017091190184E090E0D0
:1001F0000E94A400609116017091170185E090E0C3
:100200000E94A400609114017091150186E090E0B5
:100210000E94A400609112017091130187E090E0A8
:100220000C94A4008BE291E00E94A102892B09F4B6
:1002300050C08BE291E00E94BC02019709F049C0D6
:1002400082E00E947802892B39F486E990E090934D
:100250001B0180931A0104C010921B0110921A0115
:1002600080E00E94F901909319018093180181E0C8
:100270000E94F90190931D0180931C0182E00E946D
:10028000F90190931F0180931E0183E00E94F90100
:10029000909321018093200184E00E94F9019093C2
:1002A00013018093120185E00E94F9012FEF33E0E2
:1002B000281B390B309317012093160183E00E940D
:1002C000F901880F991F90931501809314010C94E4
:1002D000CC0008951F920F920FB60F9211242F9306
:1002E0003F938F939F93AF93BF93809123019091FE
:1002F0002401A0912501B09126013091220123E033
:10030000230F2D3720F40196A11DB11D05C026E84D
:10031000230F0296A11DB11D20932201809323017A
:1003200090932401A0932501B09326018091270189
:1003300090912801A0912901B0912A010196A11D57
:10034000B11D8093270190932801A0932901B093B8
:100350002A01BF91AF919F918F913F912F910F9063
:100360000FBE0F901F901895019739F0880F991FB5
:10037000880F991F02970197F1F70895789484B533
:10038000826084BD84B5816084BD85B5826085BD91
:1003900085B5816085BDEEE6F0E080818160808377
:1003A000E1E8F0E01082808182608083808181605A
:1003B0008083E0E8F0E0808181608083E1EBF0E021
:1003C000808184608083E0EBF0E0808181608083C5
:1003D000EAE7F0E0808184608083808182608083AE
:1003E0008081816080838081806880831092C100D9
:1003F00008958E3008F08E5087702091000190E4AF
:10040000299F90011124822B80937C0080917A0097
:10041000806480937A0080917A0086FDFCCF809181
:1004200078002091790090E0922B0895833081F03C
:1004300028F4813099F08230A1F008958730A9F036
:100440008830B9F08430D1F4809180008F7D03C072
:10045000809180008F7780938000089584B58F7796
:1004600002C084B58F7D84BD08958091B0008F77E0
:1004700003C08091B0008F7D8093B0000895CF932A
:10048000DF9390E0FC01E458FF4F2491FC01E0571A
:10049000FF4F8491882349F190E0880F991FFC0158
:1004A000E854FF4FA591B49182559F4FFC01C5912F
:1004B000D4919FB7611108C0F8948C912095822344
:1004C0008C93888182230AC0623051F4F8948C9115
:1004D000322F309583238C938881822B888304C0AC
:1004E000F8948C91822B8C939FBFDF91CF910895CC
:1004F000CF93DF93282F30E0F901E859FF4F849123
:10050000F901E458FF4FD491F901E057FF4FC4912E
:10051000CC2391F081110E941602EC2FF0E0EE0F37
:10052000FF1FEC55FF4FA591B4912C912D2381E035
:1005300090E021F480E002C080E090E0DF91CF9174
:100540000895FC01818D228D90E0805C9F4F821B7D
:10055000910960E470E00E94C5040895FC01918D4A
:10056000828D981731F0828DE80FF11D858D90E016
:1005700008958FEF9FEF0895FC01918D828D98175C
:1005800061F0828DDF01A80FB11D5D968C91928D77
:100590009F5F9F73928F90E008958FEF9FEF089574
:1005A00080E494E0892B49F080E090E0892B29F0E9
:1005B0000E94400481110C9400000895FC01848D78
:1005C000DF01A80FB11DA35ABF4F2C91848D90E07D
:1005D00001968F739927848FA689B7892C93A08958
:1005E000B1898C9180648C93938D848D981306C00F
:1005F0000288F389E02D80818F7D80830895CF93D9
:10060000DF93EC01888D8823C9F0EA89FB8980811A
:1006100085FD05C0A889B9898C9186FD0FC00FB6EC
:1006200007FCF5CF808185FFF2CFA889B9898C912D
:1006300085FFEDCFCE010E94DE02E7CFDF91CF91A3
:100640000895CF92DF92FF920F931F93CF93DF9382
:100650001F92CDB7DEB76C01DC015B969C915B9776
:100660005C968C915C97981307C05096ED91FC9125
:100670005197808185FD32C0F601038D10E00F5F38
:100680001F4F0F731127F02EF601848DF81211C041
:100690000FB607FCF9CFD6015096ED91FC9151971A
:1006A000808185FFF1CFC60169830E94DE026981E6
:1006B000EBCF838DE80FF11DE35AFF4F6083D60126
:1006C0005B960C935B975296ED91FC9153978081CA
:1006D0008062808381E058968C930DC0D601569637
:1006E000ED91FC91579760835096ED91FC91519755
:1006F00080818064808381E090E00F90DF91CF91D2
:100700001F910F91FF90DF90CF900895BF92CF92ED
:10071000DF92EF92FF92CF93DF93EC016A017B01AE
:10072000B22EE889F98982E08083411581EE58076D
:1007300061057105A1F060E079E08DE390E0A7012B
:1007400096010E94D9042150310941095109569559
:10075000479537952795211580E1380798F0E88966
:10076000F989108260E874E88EE190E0A7019601B3
:100770000E94D904215031094109510956954795E4
:1007800037952795EC85FD853083EE85FF852083A1
:10079000188EEC89FD89B082EA89FB8980818061AD
:1007A0008083EA89FB89808188608083EA89FB896C
:1007B000808180688083EA89FB8980818F7D808346
:1007C000DF91CF91FF90EF90DF90CF90BF90089591
:1007D0001F920F920FB60F9211242F938F939F9316
:1007E000EF93FF93E0913B01F0913C018081E09118
:1007F0004101F091420182FD12C09081809144013B
:100800008F5F8F7320914501821751F0E091440171
:10081000F0E0E55DFE4F958F8093440101C080813B
:10082000FF91EF919F918F912F910F900FBE0F909D
:100830001F9018951F920F920FB60F9211242F93AD
:100840003F934F935F936F937F938F939F93AF9358
:10085000BF93EF93FF938BE291E00E94DE02FF9142
:10086000EF91BF91AF919F918F917F916F915F9128
:100870004F913F912F910F900FBE0F901F901895A1
:100880008BE291E00E94A10221E0892B09F420E093
:10089000822F089510922E0110922D0188EE93E080
:1008A000A0E0B0E080932F0190933001A09331013C
:1008B000B093320185E091E090932C0180932B015D
:1008C00085EC90E0909338018093370184EC90E0C0
:1008D00090933A018093390180EC90E090933C0131
:1008E00080933B0181EC90E090933E0180933D0129
:1008F00082EC90E09093400180933F0186EC90E081
:10090000909342018093410110924401109245015D
:100910001092460110924701089508950E94BE0169
:100920000E948D040E949300C0EDD2E00E9412014B
:100930002097E1F30E94D002F9CFCF92DF92EF929D
:10094000FF920F931F93CF93DF936C017A01EB011A
:10095000E60EF71E00E010E0CE15DF0561F06991AC
:10096000D601ED91FC910190F081E02DC601099531
:10097000080F191FF1CFC801DF91CF911F910F917F
:10098000FF90EF90DF90CF90089597FB072E16F41D
:10099000009407D077FD09D00E94FB0407FC05D026
:1009A0003EF4909581959F4F0895709561957F4F86
:1009B0000895A1E21A2EAA1BBB1BFD010DC0AA1FA0
:1009C000BB1FEE1FFF1FA217B307E407F50720F0B8
:1009D000A21BB30BE40BF50B661F771F881F991F33
:1009E0001A9469F760957095809590959B01AC017C
:1009F000BD01CF010895AA1BBB1B51E107C0AA1F6F
:100A0000BB1FA617B70710F0A61BB70B881F991FAF
:100A10005A95A9F780959095BC01CD010895EE0FE8
:0E0A2000FF1F0590F491E02D0994F894FFCF8C
:100A2E00010000000021039D04A102BC02AE02FFE2
:020A3E000200B4
:00000001FF
